:020000040800F2
:1000000050090020A9010008E1240008D1200008BF
:1000100000000000000000000000000000000000E0
:100020000000000000000000000000004B26000857
:100030000000000000000000492600084D260008CE
:10004000BB010008BB010008BB010008BB010008A0
:10005000BB010008BB010008BB010008BB01000890
:10006000BB010008A9060008B9060008BB0100088A
:10007000BB010008BB010008BB010008BB01000870
:10008000BB010008BB010008BB010008BB01000860
:10009000BB010008BB010008BB010008BB01000850
:1000A000BB010008BB010008BB010008AD3200081D
:1000B000BB010008BB010008BB01000800F002F80A
:1000C00000F046F80CA030C8083824182D18A246B5
:1000D000671EAB4654465D46AC4201D100F038F88D
:1000E0007E460F3E0FCCB6460126334200D0FB1AA7
:1000F000A246AB4633431847306700005067000004
:10010000103A02D378C878C1FAD8520701D330C860
:1001100030C101D504680C60704700000023002442
:1001200000250026103A01D378C1FBD8520700D32E
:1001300030C100D50B60704710B5732902D100F0B3
:100140007BFA10BD002010BD1FB51FBD10B510BD3E
:1001500000F076FA1146FFF7F7FF03F0EBF800F036
:100160008EFA03B4FFF7F2FF03BC00F095FA00002B
:1001700070B505460C46164602E00FCC0FC5103E82
:10018000102EFAD2082E02D303CC03C5083E042E4B
:1001900007D301CC01C5361F03E021782970641C08
:1001A0006D1C761EF9D270BD07488047074800478E
:1001B000FEE7FEE7FEE7FEE7FEE7FEE70448054947
:1001C000054A064B70470000C1260008BD00000824
:1001D0005003002050090020500500205005002049
:1001E000FEB5054610460C46184373D0AE468C4605
:1001F0000020AD1A01469C4167D3664600270124C2
:100200003D46B61A9D4102D313463A46212465461F
:1002100076462F04360C3E432D0CB61A9D4104D36E
:10022000150C1B042B4312041034654676462F062A
:10023000360A3E432D0AB61A9D4104D3150E1B0201
:100240002B4312020834654676462F0736093E4393
:100250002D09B61A9D4104D3150F1B012B43120122
:10026000241D65467646AF07B6083E43AD08B61A6C
:100270009D4104D3950F9B002B439200A41C65461F
:100280007646EF0776083E436D08B61A9D411AD3AD
:1002900092185B41641C16E0001876466546494199
:1002A000B71A9D410191009009D36046B11A984157
:1002B0008E468446009801990025401C6941DD075F
:1002C00052082A435B08641EE6D57246634603B0B3
:1002D000F0BDFFE700200146C046C0462A4623463F
:1002E000F5E700000FB41CB5074B06AA7B4469462E
:1002F0000090059800F075F90020694600F084F937
:100300001CBC08BC04B0184719030000F8B50E4621
:100310000446002020622046E1688847002829D052
:10032000252802D06268A16820E0E1682046002705
:10033000884705001ED028464138192802D80127D1
:10034000FF0220353246204627602946FFF7F4FE9B
:10035000002808D0012804D0F61DF608F60008365B
:10036000D9E7361DD7E762682846A1689047206A1A
:10037000401CCFE7206AF8BD70B50C460546012A3F
:1003800005D02878800600D5EA69002302E0012321
:1003900005E05B1C934202D2E05C0028F9D1A86919
:1003A000E618C01AA861286AC01828622846C04604
:1003B000C04604E06A682078A968641C9047B4428B
:1003C000F8D32846C046C04670BD30B505460B463A
:1003D0002A461C781078521C5B1C002801D0A042D1
:1003E000F7D0002C03D0002802D06D1CEFE7284680
:1003F00030BD000030B5441C03E00178401C0029EA
:100400000DD08107F9D10B4BDD0104C8D11A9143FE
:100410002940FAD0001B0A0603D0C01E30BD001BC5
:1004200030BD0A0401D0801E30BD0902FCD0401E40
:1004300030BD00000101010101E004C0091F0429D1
:10044000FBD28B0701D50280801CC90700D0027047
:10045000704700290BD0C30702D00270401C491E10
:10046000022904D3830702D50280801C891EE3E79A
:100470000022EEE70022DFE7002203098B422CD3A3
:10048000030A8B4211D300239C464EE003460B43E4
:100490003CD4002243088B4231D303098B421CD346
:1004A000030A8B4201D394463FE0C3098B4201D338
:1004B000CB01C01A524183098B4201D38B01C01A70
:1004C000524143098B4201D34B01C01A52410309E7
:1004D0008B4201D30B01C01A5241C3088B4201D396
:1004E000CB00C01A524183088B4201D38B00C01A43
:1004F000524143088B4201D34B00C01A5241411A6A
:1005000000D201465241104670475DE0CA0F00D04C
:100510004942031000D34042534000229C46030945
:100520008B422DD3030A8B4212D3FC22890112BACB
:10053000030A8B420CD3890192118B4208D38901A3
:1005400092118B4204D389013AD0921100E08909BB
:10055000C3098B4201D3CB01C01A524183098B429C
:1005600001D38B01C01A524143098B4201D34B0185
:10057000C01A524103098B4201D30B01C01A5241E8
:10058000C3088B4201D3CB00C01A524183088B426F
:1005900001D38B00C01A5241D9D243088B4201D3F8
:1005A0004B00C01A5241411A00D2014663465241E3
:1005B0005B10104601D34042002B00D549427047E2
:1005C00063465B1000D3404201B50020C046C046E0
:1005D00002BD70477047704701694A1C0261087884
:1005E000704700B58FB00291002105910549019334
:1005F00079440391114604906846FFF787FE0FB0D7
:1006000000BD0000E5FFFFFF0A681070521C0A6081
:10061000704710B54369002B02D0C046C04601E0C8
:10062000FFF7AAFE012010BD1278014624310A709E
:1006300000224A700122ECE711680022D243E8E769
:10064000754600F025F8AE46050069465346C008D9
:10065000C000854618B020B5FFF7B0FD60BC00278C
:100660004908B6460026C0C5C0C5C0C5C0C5C0C57E
:10067000C0C5C0C5C0C5403D49008D46704710B5D6
:100680000446C046C0462046FFF76BFD10BD000083
:1006900000487047F002002001491820ABBEFEE779
:1006A000260002007047000010B5024800F07CF9F7
:1006B00010BD00003002002010B5024800F074F9AF
:1006C00010BD000090020020F8B504460668406C9A
:1006D0000D4F8508F0B2AD0014210838FFF7CCFEAD
:1006E000BE4203D209496918A16404E007491C31DC
:1006F0006918C01DA16405498031E164C106C90EB5
:10070000012088402065F8BD08040240000802402E
:100710000179084B4906490E8A00D2184265054AFC
:100720004432491E82658A07920F01219140C165BA
:1007300070470000FC08024010B5FF21013103485A
:10074000FFF796FE02490020087010BD4800002007
:100750000000002070B50D460646012226492748B4
:1007600001F0E8FBFFF7E8FF7D24E40002E020460B
:1007700000F0E2F922A123A000F06AF80028F6D1E7
:100780001D4821A1801C00F063F8204600F0D4F938
:100790001DA11EA000F05CF8204600F0CDF916481F
:1007A00017A10B3000F054F80028F5D112482B4661
:1007B00032461AA1401CFFF795FD7D24240102E07A
:1007C000204600F0B9F90C481AA1401C00F040F88E
:1007D0000028F5D1082319A2032101F0F3FE082314
:1007E00032460421002001F0EDFE0021082315A26D
:1007F000084601F0E7FE70BD020000209C010020C9
:100800004F4B000041540D0A0000000041542B5290
:100810004553544F52450D0A0000000041542B43EC
:10082000574A41503D222573222C222573220D0A5E
:1008300000000000474F54204950000057494649E6
:100840003A00000046696E69736865640000000044
:1008500070B50E460546C824FFF7CCFD82B20023D2
:10086000DB4329460D4801F0CBFB10E000F01AF8FD
:10087000002809D131460A48FFF7A7FD002803D018
:10088000FFF75AFF002070BD0A2000F055F92046FE
:10089000641EE4B20028E9D1012070BD9C01002053
:1008A0004800002007480178002906D0427891428C
:1008B00005D1002101700846704701207047417042
:1008C000FBE700000000002072B6FEE770B50028CC
:1008D00008D0014620314A790024022A04D004229B
:1008E000C2630C71012070BD026813680E25AB4312
:1008F0001360826C1368FF250135AB4313600268F7
:1009000013685B085B001360436C1C2213400122D8
:1009100016469E40036C5E60C36C066D5E60436D60
:10092000002B05D01E68AE431E60C36D806D436012
:100930004A710C71002070BD70B500240146203151
:100940004A79022A03D00421C16301242AE0026803
:1009500013680E25AB431360026813685B085B00E5
:100960001360826C1368FF250135AB431360436C41
:100970001C221340012216469E40036C5E60C36C2D
:10098000066D5E60436D002B05D01E68AE431E6091
:10099000836DC56D5D604A7100220A71816B00290B
:1009A00000D08847204670BDF0B4016C0D68016826
:1009B0000C68466C1C22042316401F46B7402F4289
:1009C0000ED067070CD50C68A40602D40C689C43B3
:1009D0000C60416C11408B40016C4B60016B24E05A
:1009E0000227B74003462F402033002F21D0A7070E
:1009F0001FD50C68A40605D40C680A25AC430C600E
:100A000001215971174C0168A142446C04D914406A
:100A10000221A140144A04E014400221114AA140DD
:100A2000803A516000211971C16A002918D0F0BCC8
:100A300008470827B7402F4212D0240710D50C686A
:100A40000E25AC430C60446C012114400A46A240C0
:100A5000046C6260C163597100211971416BE4E754
:100A6000F0BC7047800002400004024070B50400F2
:100A70000CD02D48256885420AD22C48142128180C
:100A8000FFF7FAFC8000606429480BE0012070BD8C
:100A90002548142140422818FFF7EEFC80006064CE
:100AA00021480838206402202646203670712868C4
:100AB000204908402860E168A0686269084321690C
:100AC00011430843A1690843E1690843216A0843C7
:100AD00021680A68104308602046FFF7F5FD0121F0
:100AE000A06889030025884200D165602079A16C47
:100AF0004006400E0860E06C216D41606068401E59
:100B0000032808D82046FFF703FE606D0560A06D3E
:100B1000E16D416002E06565A565E565E56301207D
:100B200070713571002070BD08040240F8FFFDBFF0
:100B3000000002400F80FFFF70B5044600F0C0F8CF
:100B40000546601C02D004480078241800F0B8F86C
:100B5000401BA042FAD370BD38000020F0B500233E
:100B600003249DE001259D402A4072D00E79B607EE
:100B7000B60F012E01D0022E16D186682746B44644
:100B80005E00B646B7406646BE43B446CF6876467A
:100B9000B7406646374387604668AE430D79ED0639
:100BA000ED0F9D40354345600D79ED43AD0708D00D
:100BB000C5685F002646BE40B5438E68BE402E43E2
:100BC000C6600D79AD07AD0F022D0ED1DD08AD0069
:100BD0002D18AC462D6A5E07F60E0F27B740BD43B1
:100BE0000F69B7402F4365462F6205685F002646B0
:100BF000BE40B5430E79B607B60FBE402E43066021
:100C00004D68AD03AD0F4AD09E08284DB60075194A
:100C1000AC462D6E9E07F60E0F27B740BD43052745
:100C20003F07B84201D1002715E0214FB84201D15A
:100C3000012710E01F4FB84201D102270BE01E4FE1
:100C4000B84201D1032706E01C4FB84202D1042765
:100C500001E024E00527B7402F43144D6646376670
:100C60002D684E689543F60200D515430F4F3D6041
:100C70007D684E689543B60200D515437D600B4EE6
:100C8000803675684F689543BF0300D5154375607E
:100C900035684F689543FF0300D5154335605B1CED
:100CA0000A681546DD4000D05CE7F0BD0018024040
:100CB0000004005000080050000C005000100050CC
:100CC00001488068704700003800002070B5024677
:100CD00040325378202B1CD11378012B19D00123DB
:100CE000137024245470046825689D4325600468AB
:100CF00025681E03B5432560046825680D432560FB
:100D000000680168194301602020507000201070B5
:100D100070BD022070BD70B5024640325378202B62
:100D20001BD11378012B18D0012414702423537085
:100D300003681D68A5431D6005682B680F263602F1
:100D4000B343090219432960006801682143016027
:100D5000202050700020107070BD022070BD000077
:100D600070B5040006D02546403568780026002876
:100D700002D005E0012070BD2E70204600F0F4F88E
:100D800024206870206801684908490001600F212B
:100D90006068090688432168086121688A68012023
:100DA000C00382438A60E1680129A1682FD0212213
:100DB00092021143226891600121E268C902022A6D
:100DC0002268536825D08B43536021684A68124BD0
:100DD0001A434A602168CA688243CA60616920690F
:100DE0000843A169090208432168C860216AE069D3
:100DF00008432168086020680168012211430160EE
:100E00006664202068702663AE70002070BD0143C8
:100E1000D0E70B43D8E7000000800002FFB505468D
:100E200004464035687883B0202872D10C98002899
:100E300014D00D98002811D02878012869D00120FD
:100E40002870FFF73DFF0746012200901923D103C8
:100E5000204601F01DFA002871D103E00120400274
:100E600060646CE0212068704020A87000266664F1
:100E70000C9860620D98608566630E9800900197EB
:100E800004A90EC9204601F0BDF9002801D02E703A
:100E900055E0608DFF2805D9FF22228501231B061E
:100EA000009606E0608D20850096208D0123C2B259
:100EB0005B062046049901F0D5F93A4620460E9982
:100EC00001F04AFA00283AD1606A21680078886205
:100ED000606A401C6062608D401E6085208D401EEF
:100EE00080B22085618D00291FD000281DD1009778
:100EF0000022802120460E9B01F0CAF900281ED155
:100F0000608DFF2806D9FF22228501231B0600964B
:100F100007E024E0608D20850096208D0123C2B279
:100F20005B062046049901F09DF9608D0028C4D12C
:100F30003A4620460E9901F0E4F9002802D001203B
:100F400007B0F0BD20682021C16120684268054BD0
:100F50001A4042606970AE702E700020F0E70220E7
:100F6000EEE7000000E800FE30B599B00446142119
:100F700013A8FFF77FFA4C216846FFF77BFA164962
:100F80002068884226D140200025009007956846B9
:100F900000F0B8F8002801D0FFF796FC0F4C616B09
:100FA000022001436163616B15950140189118207F
:100FB00013901220149008201790169513A9084832
:100FC000FFF7CCFDE16B012080050143E163E16B9C
:100FD0000140189119B030BD005800400010024087
:100FE00000040050024881680278891881607047C7
:100FF0003800002010B5084800240168821511430C
:101000000160032000F00AF8002801D0012401E06B
:1010100000F028F8204610BD0020024070B50F4EA9
:10102000002431780546002915D07D20C000FFF747
:1010300023FA01460A480068FFF71EFA00F0D0FCC8
:10104000002808D1042D06D200222946401E00F0B7
:101050002FF8756000E00124204670BD38000020A4
:101060004400002008B50B480168012211430160CB
:1010700000681040009007484038C26B01040A43E2
:10108000C263C06B084000900320400200F09EFC49
:1010900008BD000040100240002805DBC106C90E53
:1010A00001208840014908607047000000E100E02D
:1010B00010B502F01DF910BD10B50F4C21680322C8
:1010C0005202914301432160C11FFF39FA390ED109
:1010D0000A480621006848430949FFF7CDF9401C3A
:1010E00002E0002805D0401E61694905F9D40020BE
:1010F00010BD032010BD000000700040440000201F
:1011000040420F00FEB5044600680027984D994EF6
:10111000800355D500200090F06BC00007D4F16B20
:10112000A8050143F163F16B014001200090924852
:101130000168821511430160FFF7C2FD019005E0CF
:10114000FFF7BEFD0199401A022825D88A48006899
:10115000C005F5D5E8690321090208400FD0216CCC
:1011600081420CD0E86903210902EA698843012120
:1011700009040A43EA61EA698A43EA61E861C0074F
:101180000FD0FFF79DFD019008E0FFF799FD019951
:10119000411A7A48814201D9032709E0E8698007AA
:1011A000F3D5E869032109028843216C0843E8610B
:1011B0000098002804D0F16B012000078143F163FF
:1011C0002078C00705D068696168800880000843FE
:1011D00068612078800705D568690C218843A1687B
:1011E000084368612078400705D568693021884345
:1011F000E168084368612078C00606D56869032164
:10120000890288432169084368612088C00406D5A3
:10121000686903210902884361690843686120887D
:10122000800506D56869032189048843A16A0843BB
:1012300068612088400506D568690321090588434F
:10124000E16A084368612078800606D56869032151
:1012500009038843A169084368612078400606D5E0
:101260006869032189038843E1690843686120882C
:1012700040040ED56869216B8000800808436861CE
:101280000121206B8907884203D1F0688913084344
:10129000F0602068000305D5686940218843616BD0
:1012A000084368612068810235480BD5696982105E
:1012B000A36B914319436961A16B914202D1F1681B
:1012C0000143F160216849020AD56969E26B8143F3
:1012D00011436961E16B814202D1F1680143F16020
:1012E000218809050DD5A969226A89088900114359
:1012F000A961216A012904D1F16801221204114374
:10130000F160218889040DD5A9690C229143626A94
:101310001143A961616A042904D1F1680122120410
:101320001143F1602168C9010ED5A9690322120396
:101330009143626C1143A9610122616C5203914295
:1013400002D1F1680143F160216889010DD5A969D5
:10135000032212029143A26C1143A961A26CD11F16
:10136000F93902D1F1680143F1603846FEBD000051
:10137000401002400010024000700040881300003E
:1013800000000001F8B50F46060043D04D4D286817
:101390004007400FB84213D22868C008C000384345
:1013A0002860FFF78DFC044605E0FFF789FC011B70
:1013B0004548814261D828684007400FB842F4D1BF
:1013C0003068424C81070DD5400704D5A06807213D
:1013D00009030843A060A0680F2109028843B1688F
:1013E0000843A0603078C00732D0706801280AD066
:1013F00002280BD000280FD03449403103280ED0EA
:10140000C969890704E02168890301E0216889012D
:10141000002906DB0120F8BD21684905F8E7096AC3
:10142000EFE7A168C908C9000143A160FFF748FCC4
:10143000009006E0FFF744FC0099411A22488142DF
:101440001BD8A068382108407168C9008842F1D1D2
:1014500028684007400FB84217D91A480168C908E0
:10146000C90039430160FFF72BFC054607E0FFF791
:1014700027FC411B1448814201D90320F8BD1148C3
:1014800000684007400FB842F1D13078400706D5D8
:10149000A068072109038843F1680843A06000F0B1
:1014A00031F8A1683C2289091140094A515CC906FA
:1014B000C90EC8400749086007480068FFF7AEFD3D
:1014C000F8BD000000200240881300000010024018
:1014D000C8670008440000203C0000200648074977
:1014E00000688968064A4904490F8900515CC906A9
:1014F000C90EC840704700004400002000100240A0
:101500000868000810B5204CA068204A8006400FEB
:1015100016D0A0688006410F1D4801290FD0A16890
:101520008906490F022912D0A0688006400F0428BE
:1015300023D0A0688006400F032821D0002010BDD2
:10154000206801218004400F8140104612E0E168CC
:101550008B07E1689B0F4906490F491C032B00D0FC
:101560001046FEF789FFE1684904490E4843E168E7
:10157000490F491CFEF780FF10BD0120C00310BDBC
:101580007D20000210BD0000001002400024F40085
:10159000001BB700F8B504007ED020783827C007BC
:1015A000FE4D002846D0A868E96838408907890FB1
:1015B000102802D008280BD001E0032908D0012010
:1015C0006268000482420AD129680143296015E05B
:1015D000286880032ED560680028DDD02AE0052326
:1015E00001211B0489049A422A6802D10A432A6015
:1015F000EAE782432A6028688843286060680028F8
:101600000CD0FFF75DFB064604E0FFF759FB801B9B
:10161000642873D828688003F7D50BE0FFF750FBE8
:10162000064604E0FFF74CFB801B6428F1D82868CD
:101630008003F7D42078800769D5A868E968384026
:101640008A070721920FC902102802D0002813D060
:1016500001E0022A10D0E068002846D028688843BC
:101660002169084328602868FF2101310843286068
:10167000FFF726FB06462CE02A68520502D5E268F1
:10168000002A89D06A687F231B029A4363691B0280
:101690001A436A60002800E08DE00ED12868884374
:1016A000216908432860286801218004400F814097
:1016B000BB48FEF7E1FEBB490860BB480068FFF786
:1016C000ADFC002877D122E0FFF7FAFA801B022850
:1016D0009FD828684005F7D568687F2109028843AC
:1016E000616909020843686011E02968FF20013040
:1016F00081432960FFF7E4FA064605E0B5E0FFF70D
:10170000DFFA801B022884D828684005F7D42078A7
:10171000A64E00072ED5A8688006400F03280AD0E1
:10172000A0690028306A16D0012108433062FFF713
:10173000C7FA07460BE0306A80071BD5A06900286E
:101740009FD017E0FFF7BCFAC01B0228C0D8306A50
:101750008007F7D50EE0400840003062FFF7B0FA8E
:10176000074604E0FFF7ACFAC01B02287DD8306AB8
:101770008007F7D4207840076BD5A868002780063B
:10178000400F042818D0E86BC00008D4E96B012092
:1017900000070143E963E96B014001270091844898
:1017A0000168C90519D40168821511430160FFF76A
:1017B00087FA00900DE083E0F069800749D5A068C2
:1017C00000287DD045E0FFF77BFA0099401A0228F7
:1017D0004BD877480068C005F5D5A168012910D01D
:1017E00004200529F16911D049084900F161F16926
:1017F0008143F161A068002816D0FFF761FA0090DC
:101800000EE0F06901210843F061F3E70143F16163
:10181000F7E7FFF755FA0099411A6648814224D844
:10182000F0698007F5D50DE0FFF74AFA009006E071
:10183000FFF746FA0099411A5E4881427FD8F06965
:101840008007F5D4002F04D0E96B01200007814305
:10185000E9632078800624D50120E169800500290C
:10186000296810D00143296000E068E0FFF728FAFA
:10187000064604E0FFF724FA801B02285FD8286898
:101880000002F7D50DE081432960FFF719FA0646FB
:1018900004E0FFF715FA801B022850D828680002E0
:1018A000F7D4206A002844D0A9688906490F022984
:1018B0004FD0012636060228286807D0B04300E042
:1018C0007FE02860FFF7FCF904463AE0B043286067
:1018D000FFF7F6F9074604E0FFF7F2F9C01B02280C
:1018E0002DD828688001F7D4A16A606AE26A0843AB
:1018F000216B120211430843616B0843A16B08433B
:10190000E9682D4A11400843E860286830432860A0
:10191000E868012109070843E860FFF7D1F90446A8
:1019200004E0FFF7CDF9001B022808D828688001E1
:10193000F7D548E0FFF7C4F9001B022801D90320BE
:10194000F8BD28688001F5D4E8681C490840E860C3
:1019500039E00128F4D0E868626A8107890F914272
:101960002FD17021A26A014091422AD17F21E26ADF
:10197000090201401202914223D11F214904226B26
:10198000014091421DD107214906626B01409142FD
:1019900017D1400FA16B4007884211E000100240B0
:1019A0000024F400440000203C00002040100240CD
:1019B00000700040881300008C80C111FCFFFEEE17
:1019C00001D00120F8BD0020F8BD000003490A68DD
:1019D00003235B029A4302430A6070470000014000
:1019E000094910B5401E884201D9012010BD074C9D
:1019F00060610321081F01F07BFC0020A06107202B
:101A00002061002010BD0000FFFFFF0000E000E0AB
:101A100010B5014680310A79012A15D001220A71D8
:101A200024228A60026813681468640864001460E1
:101A3000012252079343002242660068036020207F
:101A400088600A71104610BD022010BD70477047B3
:101A500070B5044605468034207901281AD001204B
:101A600020712420A060286806680268520852008D
:101A700002602868826807235B069A430A438260F3
:101A8000284600F01FFE286806602020A060002085
:101A9000207170BD022070BD70B5044605468034CB
:101AA0002079012819D0012020712420A060286805
:101AB0000668026852085200026028688268D200F4
:101AC000D2080A438260284600F0FCFD28680660C0
:101AD0002020A0600020207170BD022070BD7047E2
:101AE00070477047F8B503680446D96918689A6862
:101AF000B44D0E462E4025468035002E75D0B24E90
:101B0000B24F1640074037436ED0CF0706D0C70507
:101B100004D501271F622B693B432B618B0708D536
:101B2000D30706D0276802233B622B6904273B4377
:101B30002B614B0708D5D30706D0276804233B62E7
:101B40002B6902273B432B610B0709D52023034058
:101B5000334305D02668082333622E691E432E6165
:101B60000B0509D5430107D501232668DB02336243
:101B70002B69202633432B612B69002B42D0890629
:101B80000AD520210840C9050A40104304D0616FDE
:101B9000002901D0204688472869216889684906BC
:101BA00002D42821084232D0204600F079FE216874
:101BB0008868400627D5EFF31080012282F3108851
:101BC0008B68402293438B6080F31088286800283C
:101BD00019D07F4981632868FEF7AEFE002811D036
:101BE0002868816B0DE000E017E08E0615D501270F
:101BF00020263F07064017403E430ED0616FB5E0F8
:101C000020468847F8BD2046FFF76BFFF8BD204609
:101C1000FFF767FF00202861F8BDE66E012E7DD139
:101C2000CE067BD5C60679D510221A62236898683D
:101C3000264640064036002849DA29680868406888
:101C40000004000CE8D0B78B8742E5D9F083086820
:101C50000068800634D4EFF31080012181F31088EE
:101C600019681701B943196080F31088EFF31080E9
:101C7000012181F3108821688B685B085B008B6011
:101C800080F31088EFF31080012181F31088216820
:101C90008B684027BB438B6080F310882020E8606E
:101CA0000020E066EFF31080012181F310882168A5
:101CB0000B6893430B6080F310882868FEF706FEDC
:101CC00002202067B08BF18B401A81B235E0B08BD7
:101CD000F18B401A81B2F08B00289DD000299BD057
:101CE000EFF31080012686F310881E68FF27213746
:101CF000BE431E6080F31088EFF31080012383F34E
:101D0000108823689E68304FFF433E409E6080F3FA
:101D100010882020E8600020E06600E011E06067A5
:101D2000EFF31080012383F3108823681D68954327
:101D30001D6080F31088022020672046FFF786FE92
:101D4000F8BDCE0208D5560206D50120000518625E
:101D50002046FFF7C5FEF8BD0E060BD501278026ED
:101D6000FF0506403A40164304D0A16F002900D079
:101D700046E7F8BD4A0614D5420612D52046EFF3D1
:101D80001081012282F310881A684024A2431A604D
:101D900081F310882021A9600021816700F097F964
:101DA000F8BD0A0205D5420003D52046FFF797FE8D
:101DB000F8BDC901FCD50028FADA2046FFF747FE36
:101DC000F8BD00000F080000010000102001000411
:101DD0008D28000870B5040005D025468035A86818
:101DE000002802D006E0012070BD002028712046A6
:101DF00000F026F82420A8602068016849084900FE
:101E00000160A06A002802D0204600F07DFC204638
:101E100001F024F80128E7D0206841680922D202A5
:101E200091434160206881682A2291438160206843
:101E30000168012211430160204600F0CBFC70BD17
:101E4000F0B599B00646142113A8FEF713FB4C21F8
:101E50006846FEF70FFB33493068884260D10125A0
:101E60000024684600950194FFF74CF9002801D042
:101E7000FEF72AFD2C480268012189030A4302600B
:101E800000680840189028484038416B2943416356
:101E9000406B1594C007C00F1890032040021390A8
:101EA00002201490052013A9179516940007FEF739
:101EB00055FE1F4D1D482860AC60EC606C61AC6144
:101EC0008027EC612F6132202C6268602846FEF783
:101ED000CDFD002801D0FEF7F7FC80208551AE62D1
:101EE000134D12486035143028603320686029464D
:101EF0001020083191C16C61AC61EC6128462C6204
:101F0000FEF7B4FD002801D0FEF7DEFCF5670022E5
:101F100011461B20AE62FFF7CBF81B20FFF7BCF881
:101F200019B0F0BD003801404010024008000240E6
:101F30003002002070B58C231B58202B01D00220CA
:101F400070BD00290BD0002A09D001248368240326
:101F5000A34206D10369002B03D1CB0701D0012096
:101F600070BD0023C3660C4B04689C4211D00B4B20
:101F70009C420ED063681B020BD5EFF31083012542
:101F800085F3108825680126B6063543256083F35E
:101F9000108801F0ADF870BD008000400084004062
:101FA00010B510480178491CC9B20170FF290DD342
:101FB00000210170FF2101310B48FEF759FA0B4B4C
:101FC0000A220BA10D4800F01BF804E082780648B5
:101FD00040182038C27703490122891C0748FFF7BF
:101FE000A9FF10BD0000002048000020FFFF0000F6
:101FF000CAFDBEDDD2E7B3F6000000009C01002060
:10200000FFB5064604468036B06883B00D462028EA
:1020100002D0022007B0F0BD002D0CD0059800289A
:1020200009D00120A1680003814206D1206900285F
:1020300003D1E80701D00120ECE700203061212026
:10204000B060FEF73DFE0190274640370598B88204
:102050000598F8820120A1680003814202D120691D
:10206000002802D00295002515E00020029012E021
:1020700000228021204601F0D1F8002818D10298D2
:10208000002819D02168007888620298401C0290CC
:10209000F88A401EF882F88A019B00280698009072
:1020A000E6D100224021204601F0B8F800280AD0ED
:1020B0002020B0600320ADE728882168C005C00D4E
:1020C0008862AD1CE4E72020B0600020A2E77047E2
:1020D000FEE701688A69D243920701D400228A622E
:1020E00000688169C943C90703D08169012211438E
:1020F00081617047F7B50446006882B081690026A7
:102100002746C906403735460092002945DA102196
:10211000C16132E00398401C2FD0FEF7D1FD009939
:10212000411A0398814201D8002826D120684168CD
:10213000012292031140BA788369DB431B0417D450
:1021400001239B03994213D0202A11D041681943DF
:102150004160FEF7B5FD00900AE0FEF7B1FD0146D3
:102160000098081A192803D920200543012604E005
:1021700020688069C0438006EFD420688069C0432E
:10218000800602D5002EC5D004E0002E02D12168C1
:102190002020C86104200543012621688869C20502
:1021A00004D5012215431202CA610126410508D552
:1021B00008210D43CA012168CA610126800502D4A5
:1021C0000AE0800506D50220054321680002C861A7
:1021D000012601E0002E0FD02046FFF77AFF20688D
:1021E0004168074A11404160606C284360642020C8
:1021F00078700020B8703870304605B0F0BD00002F
:1022000000E800FEF8B50446164615481D46DAB249
:10221000C3020090079F204600F024F83A4620466B
:10222000069900F099F8002818D12846F5B201283F
:1022300009D02168300A88623A462046069900F0A3
:102240008BF800280AD1206885620097002280213F
:102250002046069B00F01CF8002800D00120F8BDA5
:1022600000200080890510B5890D12041143029CDD
:10227000194302682143490050684908630D034C23
:10228000234398430843506010BD0000FF63FF03E1
:10229000F8B51D4617460E46044626E02946204658
:1022A000069AFFF727FF002801D00120F8BD681C1F
:1022B0001BD0FEF705FD0699401AA84201D8002D53
:1022C00013D120688169304688430CD00020B84281
:1022D0000BD1616C202001436164403460700020A8
:1022E000A0702070E1E70120F1E7206881693046A5
:1022F000884304D00020B842D0D00020F8BD01208F
:10230000F9E770B516460D4604461EE032462946EA
:102310002046FFF7EFFE002801D0012070BDFEF738
:10232000CFFC801BA84201D8002D0ED12068806907
:10233000C043800609D5616C2020014361644034AC
:1023400060700020A0702070E7E720688069C043BB
:102350008006DBD4002070BD70B516460D460446DD
:1023600020E0324629462046FFF7C4FE002801D06F
:10237000012070BD681C15D0FEF7A2FC801BA8428E
:1023800001D8002D0ED120688069C043800709D58F
:10239000616C202001436164403460700020A070B3
:1023A0002070E5E720688069C0438007D9D4002009
:1023B00070BD000008B50C48816B01221143816398
:1023C000806B10400022009011460920FEF770FE3D
:1023D0000920FEF761FE002211460A20FEF768FE82
:1023E0000A20FEF759FE08BD0010024008B50B4850
:1023F000426B20210A434263426B0A400092416BC8
:10240000012211434163416B11400091426B022153
:102410000A434263406B0840009008BD0010024030
:1024200010B51348114901601249416000218160D3
:102430000161416181610122C161C2600162FEF7F7
:102440008FFC002801D0FEF73FFA00210848FEF774
:102450003DFC002801D0FEF737FA00210448FEF7C2
:102460005AFC002801D0FEF72FFA10BD005800409A
:1024700048010020B57DB11010B51848164901601B
:10248000E1214902416000218160C16001618161F7
:10249000C16101620C22416242618162FFF79AFCD4
:1024A000002801D0FEF710FA00210C48FFF7F4FADB
:1024B000002801D0FEF708FA00210848FFF7C8FA03
:1024C000002801D0FEF700FA0448FFF7A1FA00281F
:1024D00001D0FEF7F9F910BD003801409C01002041
:1024E000FEE770B500242046B030C0B200F084F89A
:1024F000002000F081F8102000F07EF80025002078
:1025000000F08EF86D1CEDB2802DF8D3641CE4B29F
:10251000082CE8D370BD10B5C820FEF70DFB00F005
:10252000CDFE10BD10B50446B031C8B200F064F85D
:102530002009103000F060F82007000F00F05CF870
:1025400010BD0000FFB581B0203A019800240D466F
:10255000D6B27F2803D900208D1CEDB20190102B3C
:1025600029460ED0FFF7DEFF0620464313483518F4
:10257000285D00F055F8641CE4B2062CF8D305B0D1
:10258000F0BDFFF7CFFF37010D4E3819305C00F07A
:1025900047F8641CE4B2082CF7D36D1CE9B201982B
:1025A000FFF7C0FF002438198019007A00F038F8CE
:1025B000641CE4B2082CF6D3E1E70000C433000841
:1025C000EC350008FFB581B017460E4604460025DD
:1025D0000DE031462046049BFFF7B4FF0834E4B217
:1025E000782C02D90024B61CF6B26D1CEDB27A5DCF
:1025F000002AEED105B0F0BD01B584B0FF22012163
:10260000013204A80B460292019100900022782129
:102610000248FEF703FC05B000BD000048010020A1
:1026200001B584B0FF220121013204A80B460292B9
:1026300001910090402278210248FEF7EFFB05B09F
:1026400000BD0000480100207047704710B5FEF73C
:10265000C9FC10BD30B593B03C216846FDF70AFFB8
:10266000002401200F941094119440021294FEF75C
:1026700023FD012000900004019003200990102008
:102680000B90400302250C90089500020D9040012C
:102690000E900A946846FEF77DFF002801D072B6BE
:1026A000FEE707200F9011940221109512940FA8B5
:1026B000FEF768FE002801D072B6FEE713B030BD09
:1026C00070470000F8B50446416E4034002915D02B
:1026D00000688168806809014D0F0A4E400F374637
:1026E000315C083F385CC000FDF7C6FE6085785D50
:1026F000715DC000FDF7C0FE2085F8BD012060853A
:10270000FAE70000C067000810B5018D090707D57A
:1027100001684A680123DB039A43836B1A434A60CA
:10272000018DC90707D001684A6801235B049A43F9
:10273000C36A1A434A60018D890707D501684A6850
:1027400001231B049A43036B1A434A60018D490716
:1027500007D501684A6801239B049A43436B1A43D7
:102760004A60018DC90607D50268916801231B03E1
:102770009943C36B19439160018D890607D50168A0
:102780008A6801235B039A43036C1A438A60018DB4
:10279000490612D503685A6801210905446C8A4329
:1027A00022435A60426C8A4207D10268516803236F
:1027B0005B059943836C19435160018D090607D568
:1027C00001684A680123DB04C06C9A4302434A60F3
:1027D00010BD0000FEB505460026803504462E617A
:1027E000FEF76EFA01902068006820270007002895
:1027F00017DA25480090002239042046019B00F09A
:102800000DFD00280DD0EFF31080012181F3108819
:1028100021680A6880239A430A6080F31088AF60B9
:1028200028E020680068400727D51748009001215C
:10283000002289052046019B00F0F0FC00281CD0F6
:10284000EFF31080012181F3108821680A68FF23CB
:1028500021339A430A6080F31088EFF3108001213E
:1028600081F3108821688A68520852008A6080F3D8
:102870001088EF602E710320FEBDAF60EF60E6664A
:1028800026672E710020FEBDFFFFFF0110B5806A94
:10289000002201464031CA83CA82FFF722F910BDE7
:1028A00010B5EFF31081012282F3108802681368DB
:1028B000FF242134A343136081F31088EFF31081C8
:1028C000012282F31088026893680D4C23409360C4
:1028D00081F31088C16E01290BD1EFF31081012221
:1028E00082F31088026813681024A343136081F3F5
:1028F000108820228C210A500021C166416710BD3A
:10290000FEFFFFEF70B501464031034680330C8C6B
:10291000DD680268222D04D0906908210843906187
:1029200070BD526A856D22402A80826D921C82653C
:10293000CA8B521ECA83CA8B002AF1D1EFF31082D0
:10294000012484F3108804682568FF262136B543E6
:10295000256082F31088EFF31082012484F310883D
:102960000468A5686D086D00A56082F310882022B8
:10297000DA60002343670367194A0468944211D060
:10298000184A94420ED0626812020BD5EFF31082FF
:10299000012585F3108825680126B606B543256014
:1029A00082F31088C26E012A02D0FFF7F9FA70BDD7
:1029B000C366EFF31082012383F3108803681D6858
:1029C0001024A5431D6082F310880268D369DB439D
:1029D000DB0600D41462898BFFF738F870BD000065
:1029E0000080004000840040F0B5054604464035B4
:1029F0008BB0288C02902068C669016806918168B6
:102A00000491214680310091C968222905D081694D
:102A10000822114381610BB0F0BD2F8D7FE020684B
:102A2000406A029AA16D10400880A06D801CA065CC
:102A3000E88B401EE8832068C669710731D0F10732
:102A400009D00699C90506D50121016200980069DF
:102A5000084300990861B0070BD50498C00708D057
:102A60002168022008620098006904210843009947
:102A7000086170070BD50498C00708D021680420AE
:102A800008620098006902210843009908610098D3
:102A90000069002805D02046FFF723F800990020A0
:102AA0000861E88B00283AD1EFF31080012181F30F
:102AB000108821680A68FF2301339A430A6080F373
:102AC0001088EFF31080012181F3108821688A6853
:102AD000334B1A408A6080F3108800992020C86028
:102AE0000020606720672F492068884211D02E4956
:102AF00088420ED0416809020BD5EFF31081012204
:102B000082F31088026801239B069A43026081F3D6
:102B10001088E06E01282AD02046FFF741FA002FE6
:102B200002D0B00600D57AE7E88B002800D172E722
:102B3000298D8142FBD9EFF31080012181F31088A8
:102B400021688A6801231B079A438A6080F31088F2
:102B500016486067EFF31080012181F31088216827
:102B60000A6820231A430A6080F3108853E7002084
:102B7000E066EFF31080012181F31088226813686A
:102B800010218B43136080F310882068C269D24300
:102B9000D20600D40162A98B2046FEF757FFBEE79C
:102BA000FEFFFFEF00800040008400400529000880
:102BB00070B501464031034680330C8CDD680268F5
:102BC000222D04D0906908210843906170BD526A9B
:102BD0002240846D2270826D521C8265CA8B521E07
:102BE000CA83CA8B002AF1D1EFF31082012484F347
:102BF000108804682568FF262136B543256082F3D6
:102C00001088EFF31082012484F310880468A5680B
:102C10006D086D00A56082F310882022DA60002321
:102C200043670367194A0468944211D0184A9442D2
:102C30000ED0626812020BD5EFF31082012585F3E6
:102C4000108825680126B606B543256082F31088F2
:102C5000C26E012A02D0FFF7A3F970BDC366EFF37D
:102C60001082012383F3108803681D681024A54394
:102C70001D6082F310880268D369DB43DB0600D451
:102C80001462898BFEF7E2FE70BD000000800040F8
:102C900000840040F0B50546044640358BB0288CD2
:102CA00002902068C66901680691816804912146F6
:102CB00080310091C968222905D081690822114319
:102CC00081610BB0F0BD2F8D7FE02068406A0299D2
:102CD0000840A16D0870A06D401CA065E88B401EE7
:102CE000E8832068C669710731D0F10709D00699D9
:102CF000C90506D5012101620098006908430099C1
:102D00000861B0070BD50498C00708D021680220DD
:102D1000086200980069042108430099086170075F
:102D20000BD50498C00708D02168042008620098D9
:102D30000069022108430099086100980069002891
:102D400005D02046FEF7CDFE009900200861E88BF3
:102D500000283AD1EFF31080012181F31088226816
:102D60001168FF2301339943116080F31088EFF35A
:102D70001080012181F3108822689168334B19403B
:102D8000916080F3108800982021C1600020606766
:102D900020672F492068884211D02E4988420ED0E2
:102DA000416809020BD5EFF31081012282F31088EC
:102DB000026801239B069A43026081F31088E06E4B
:102DC00001282AD02046FFF7EBF8002F02D0B006EA
:102DD00000D57AE7E98B002900D172E7288D884277
:102DE000FBD9EFF31081012080F3108823689868E5
:102DF000012212079043986081F310881648EFF380
:102E000010816067012080F3108823681A682020F1
:102E100002431A6081F3108853E70020E066EFF365
:102E20001080012181F310882268136810218B43E0
:102E3000136080F310882068C269D243D20600D4A0
:102E40000162A98B2046FEF701FEBEE7FEFFFFEF01
:102E50000080004000840040B12B0008F8B5044613
:102E6000016880682569E7692843656900263D4354
:102E70002843904A904B0D68904F3D4005430D60AC
:102E80002168486803252D03A843E5682843486066
:102E90002168A069914203D0994201D0256A284354
:102EA0008D68874F3D4005438D602068C16A656A23
:102EB000090909012943C162824D21688248A9425A
:102EC0000AD140698007800F4ED001285DD00228CA
:102ED0004AD0032847D15AE07C4DA9420AD1406923
:102EE0000C25284040D004283ED008284BD00C2880
:102EF00039D14CE0764DA9420AD1406930252840AD
:102F000032D0102841D020283DD030282BD13EE0AF
:102F1000704DA94214D0704DA94211D06F4DA942F5
:102F20000ED091420ED1456903208002054007D0A2
:102F3000012080022D1A28D02D1A24D0281A10E042
:102F4000002011E099420ED1406903252D0228404E
:102F50000AD0FF38401E18D0FF38401E13D0FF386B
:102F60000138002813D010205D4D5E4F914201D0F2
:102F7000994240D100280CD0022814D004280BD04C
:102F8000082837D10DE00220EEE70420ECE7082006
:102F9000EAE7FEF7A3FA01E0FEF7B4FA050002D172
:102FA0007EE00125ED03606A4000395A2846009111
:102FB000FDF762FA67687900791881426BD83903A6
:102FC000814268D3002328461946009AFDF708F984
:102FD000020E090203027808114318180022514119
:102FE0003A460023FDF7FCF8032109023E4A411A44
:102FF000914253D94FE00121E269C9038A4228D1A5
:10300000002806D002280DD0042805D0082842D177
:1030100007E0FEF763FA01E0FEF774FA050001D15C
:103020003EE00D46606A4000395A2846FDF724FA12
:10303000616840004A088018FDF71EFA01462B4AD5
:103040001039914227D8511C01400007400F084316
:1030500024E0002806D002280DD0042805D0082836
:1030600019D107E0FEF73AFA01E0FEF74BFA050046
:1030700001D115E00D46606A4000395A2846FDF737
:10308000FBF961684A088018FDF7F6F90146174A0E
:103090001039914201D9012602E080B22168C8604E
:1030A0002046012140304185018500206067A067EE
:1030B0003046F8BD0080004000840040F369FFCF37
:1030C000FFF4FF110038014040100240004400406E
:1030D00000480040004C004000500040003C0140CF
:1030E0000024F400A0670008FFFC0F00EFFF0000C1
:1030F000F0B58165014640318A83CA830025456762
:10310000012483682403FF26A34204D10369002B12
:1031100013D13D4B0AE07F27002B09D0012636074B
:10312000B3420CD10369002B05D03F230B8407E089
:103130000369002B01D00F8402E00E8400E00D84AF
:10314000034680331D612225DD60EFF310830125E6
:1031500085F310880568AE6801273E43AE6083F3AF
:103160001088436E7D07AB4229D1098D914226D844
:103170008168A14202D1016900291DD0234941671C
:10318000016900290CD0EFF31081012282F310882D
:1031900002681368FF2401342343136081F310880D
:1031A000EFF31081012282F3108800688268012306
:1031B0001B071A43826023E015494167F0E78168E5
:1031C000A14202D1016900290ED01249416701696B
:1031D00000290BD0EFF31081012282F310880068E0
:1031E0000268FF23213309E00B494167EFF31081A7
:1031F000012282F310880068026820231A430260CB
:1032000081F310880020F0BDFF010000952C00081C
:10321000E9290008B12B000805290008FFB581B095
:1032200005460E46044680350A9F32E0781C30D0B1
:10323000FDF746FD0499401AB84218D8002F16D061
:1032400020680168490724D5802E22D0402E20D046
:10325000C169C94309070CD4082606622046FFF756
:103260001FFB2E6100202871012005B0F0BD032056
:10327000FBE7C069C04300050BD401202168C002F0
:1032800008622046FFF70CFB2020286100202871EF
:10329000EDE72068C1693046884305D000210398D6
:1032A0008142C3D00020E0E70121F8E710B50248D1
:1032B000FEF718FC10BD00009C010020FEB5FF25A4
:1032C00000240135084F01263819009001230022FF
:1032D0007821019602950548FDF7A0FD641CE4B233
:1032E0001B2CF1D3FEBD00001B0000204801002074
:1032F0008307FF22DB0E9A408907090E99400028B8
:1033000008DB830809489B001B1818689043084392
:10331000186070470007000F0838830804489B00B6
:103320001B18D86990430843D861704700E400E057
:1033300000ED00E08CB02C220EA16846FCF718FFCF
:10334000FDF758FEFFF786F9FFF750F8FFF732F860
:10335000FFF792F8FFF764F8FFF7DDF8FFF7C1F821
:103360000FA112A0FDF7F6F9154C2046FDF7E4FB7E
:10337000FBE7000041542B43574A41503D22586916
:10338000616F6D692050616420352050726F222C6E
:10339000223131313131313131220D0A000000004A
:1033A0003131313131313131000000005869616F04
:1033B0006D692050616420352050726F000000005C
:1033C000B80B00000000000000000000002F00000B
:1033D00000000700070000147F147F1400242A7FD8
:1033E0002A12006264081323003649552250000057
:1033F0000503000000001C224100000041221C00C7
:103400000014083E08140008083E0808000000A048
:103410006000000808080808000060600000002044
:1034200010080402003E5149453E0000427F400022
:10343000004261514946002141454B3100181412A8
:103440007F10002745454539003C4A494930000175
:103450007109050300364949493600064949291EC4
:103460000000363600000000563600000008142226
:103470004100001414141414000041221408000226
:103480000151090600324959513E007C1211127C4B
:10349000007F49494936003E41414122007F414178
:1034A000221C007F49494941007F09090901003E6A
:1034B0004149497A007F0808087F0000417F4100A8
:1034C000002040413F01007F08142241007F40401E
:1034D0004040007F020C027F007F0408107F003E06
:1034E0004141413E007F09090906003E4151215EEC
:1034F000007F091929460046494949310001017FE9
:103500000101003F4040403F001F2040201F003F7E
:103510004038403F00631408146300070870080730
:1035200000615149454300007F41410000552A5543
:103530002A55000041417F000004020102040040BE
:1035400040404040000001020400002054545478E0
:10355000007F484444380038444444200038444400
:10356000487F00385454541800087E09010200189E
:10357000A4A4A47C007F080404780000447D4000DB
:10358000004080847D00007F102844000000417FBF
:103590004000007C04180478007C0804047800389B
:1035A0004444443800FC242424180018242418FC23
:1035B000007C0804040800485454542000043F448C
:1035C0004020003C4040207C001C2040201C003C4F
:1035D0004030403C004428102844001CA0A0A07C9F
:1035E000004464544C4414141414141400000000D7
:1035F000000000000000000000000000000000F8D3
:1036000000000000000000333000000000100C0635
:10361000100C0600000000000000000040C07840D0
:10362000C0784000043F04043F040400007088FC9C
:1036300008300000001820FF211E0000F008F000F4
:10364000E018000000211C031E211E0000F0088865
:10365000700000001E2123241927211010160E00CF
:10366000000000000000000000000000000000E07A
:10367000180402000000000718204000000204188F
:10368000E00000000040201807000000404080F0EB
:10369000804040000202010F01020200000000F021
:1036A000000000000101011F0101010000000000F5
:1036B0000000000080B0700000000000000000006A
:1036C00000000000000101010101010100000000F3
:1036D000000000000030300000000000000000008A
:1036E00080601804006018060100000000E0100867
:1036F0000810E000000F102020100F00001010F83C
:10370000000000000020203F20200000007008087A
:1037100008887000003028242221300000300888FA
:10372000884830000018202020110E000000C02022
:1037300010F8000000070424243F240000F8088843
:10374000880808000019212020110E0000E01088D0
:1037500088180000000F112020110E000038080802
:10376000C83808000000003F000000000070880812
:1037700008887000001C222121221C0000E0100893
:103780000810E0000000312222110F00000000C0EC
:10379000C000000000000030300000000000008089
:1037A0000000000000008060000000000000804079
:1037B0002010080000010204081020004040404092
:1037C00040404000040404040404040000081020E5
:1037D000408000000020100804020100007048082A
:1037E0000808F0000000003036010000C030C82892
:1037F000E810E0000718272423140B000000C0384D
:10380000E0000000203C23020227382008F88888C6
:1038100088700000203F202020110E00C0300808D2
:1038200008083800071820202010080008F80808A9
:103830000810E000203F202020100F0008F88888A2
:10384000E8081000203F20202320180008F888886E
:10385000E8081000203F200003000000C0300808E6
:103860000838000007182020221E020008F808006F
:103870000008F808203F210101213F20000808F836
:10388000080800000020203F202000000000080859
:10389000F8080800C08080807F00000008F888C019
:1038A00028180800203F20012638200008F80800CA
:1038B00000000000203F20202020300008F8F80001
:1038C000F8F80800203F003F003F200008F830C013
:1038D0000008F808203F200007183F00E010080803
:1038E0000810E0000F10202020100F0008F8080832
:1038F0000808F000203F210101010000E010080845
:103900000810E0000F18242438504F0008F8888869
:1039100088887000203F2000030C30200070880849
:10392000080838000038202121221C00180808F857
:10393000080818000000203F2000000008F80800D8
:103940000008F808001F202020201F0008788800A9
:1039500000C83808000007380E010000F80800F819
:103960000008F800033C0700073C030008186880C3
:103970008068180820302C03032C30200838C80039
:10398000C83808000000203F200000001008080888
:10399000C83808002038262120201800000000FE2A
:1039A000020202000000007F40404000000C30C0D6
:1039B00000000000000000010638C0000002020202
:1039C000FE000000004040407F00000000000402B4
:1039D00002020400000000000000000000000000DF
:1039E00000000000808080808080808000020204CF
:1039F00000000000000000000000000000008080C7
:103A0000808000000019242222223F2008F8008034
:103A100080000000003F112020110E0000000080F7
:103A200080800000000E1120202011000000008086
:103A30008088F800000E112020103F2000008080B8
:103A400080800000001F222222221300008080F0CC
:103A5000888888180020203F2020000000008080F7
:103A600080808000006B94949493600008F800803C
:103A700080800000203F210000203F200080989897
:103A8000000000000020203F2020000000000080F7
:103A90009898000000C08080807F000008F8000037
:103AA00080808000203F24022D302000000808F88C
:103AB000000000000020203F202000008080808047
:103AC00080808000203F20003F20003F80800080D9
:103AD00080800000203F210000203F2000008080E7
:103AE00080800000001F202020201F008080008098
:103AF0008000000080FFA12020110E000000008047
:103B000080808000000E112020A0FF808080800037
:103B10008080800020203F21200001000000808064
:103B2000808080000033242424241900008080E059
:103B3000808000000000001F202000008080000026
:103B400000808000001F202020103F208080800007
:103B50000080808000010E30080601008080008017
:103B6000008080800F300C030C300F00008080003C
:103B7000808080000020312E0E3120008080800067
:103B80000080808080818E70180601000080808017
:103B9000808080000021302C2221300000000000B5
:103BA000807C020200000000003F40400002027CD6
:103BB000800000000040403F0000000000000000C6
:103BC000FF00000000000000FF0000000020202097
:103BD000A06000FF6080402018000000000000008E
:103BE00000000000000000000000000000000000D5
:103BF00000000000000000000000000000000000C5
:103C000000000000000000000000000000000000B4
:103C100000000000000000000000000000000000A4
:103C20000000000000000000000000000000000094
:103C30000000000000000000000000000000000084
:103C40000000000000000000000000000000000074
:103C50000000000000000000000000000000000064
:103C60000000000000000000000000000000000054
:103C70000000000000000000000000000000000044
:103C80000000000000000000000000000000000034
:103C90000000000000000000000000000000000024
:103CA0000000000000000000000000000000000014
:103CB0000000000000000000000000000000000004
:103CC00000000000000000000000002010080601B5
:103CD00040807F0001020408101000000000000076
:103CE00000000000000000000000000000000000D4
:103CF00000000000000000000000000000000000C4
:103D000000000000000000000000000000000000B3
:103D100000000000000000000000000000000000A3
:103D20000000000000000000000000000000000093
:103D30000000000000000000000000000000000083
:103D40000000000000000000000000000000000073
:103D50000000000000000000000000000000000063
:103D60000000000000000000000000000000000053
:103D70000000000000000000000000000000000043
:103D80000000000000000000000000000000000033
:103D90000000000000000000000000000000000023
:103DA0000000000000000000000000000000000013
:103DB0000000000000000000000000000000000003
:103DC000000000000000000000001060028C0000F5
:103DD000FE9292929292FE0000000000000000000D
:103DE00000000000000000000000000000000000D3
:103DF00000000000000000000000000000000000C3
:103E000000000000000000000000000000000000B2
:103E100000000000000000000000000000000000A2
:103E20000000000000000000000000000000000092
:103E30000000000000000000000000000000000082
:103E40000000000000000000000000000000000072
:103E50000000000000000000000000000000000062
:103E60000000000000000000000000000000000052
:103E70000000000000000000000000000000000042
:103E80000000000000000000000000000000000032
:103E90000000000000000000000000000000000022
:103EA0000000000000000000000000000000000012
:103EB0000000000000000000000000000000000002
:103EC00000000000000000000004047E01407E426B
:103ED000427E427E42427E40000000000000000020
:103EE00000000000000000000000000000000000D2
:103EF00000000000000000000000000000000000C2
:103F000000000000000000000000000000000000B1
:103F100000000000000000000000000000000000A1
:103F20000000000000000000000000000000000091
:103F30000000000000000000000000000000000081
:103F40000000000000000000000000000000000071
:103F50000000000000000000000000000000000061
:103F60000000000000000000000000000000000051
:103F70000000000000000000000000000000000041
:103F80000000000000000000000000000000000031
:103F90000000000000000000000000000000000021
:103FA0000000000000000000000000000000000011
:103FB0000000000000000000000000000000000001
:103FC00000000000000000001010D0FF90502050B2
:103FD0004C434C5020404000000000000000000016
:103FE00000000000000000000000000000000000D1
:103FF00000000000000000000000000000000000C1
:1040000000000000000000000000000000000000B0
:1040100000000000000000000000000000000000A0
:104020000000000000000000000000000000000090
:104030000000000000000000000000000000000080
:104040000000000000000000000000000000000070
:104050000000000000000000000000000000000060
:104060000000000000000000000000000000000050
:104070000000000000000000000000000000000040
:104080000000000000000000000000000000000030
:104090000000000000000000000000000000000020
:1040A0000000000000000000000000000000000010
:1040B0000000000000000000000000000000000000
:1040C00000000000000000040300FF0041445841CC
:1040D0004E60584740400000000000000000000013
:1040E00000000000000000000000000000000000D0
:1040F00000000000000000000000000000000000C0
:1041000000000000000000000000000000000000AF
:10411000000000000000000000000000000000009F
:10412000000000000000000000000000000000008F
:10413000000000000000000000000000000000007F
:10414000000000000000000000000000000000006F
:10415000000000000000000000000000000000005F
:10416000000000000000000000000000000000004F
:10417000000000000000000000000000000000003F
:10418000000000000000000000000000000000002F
:10419000000000000000000000000000000000001F
:1041A000000000000000000000000000000000000F
:1041B00000000000000000000000000000000000FF
:1041C0000000000000001060028C00FE02F202FEFF
:1041D00000F800FF000000000000000000000000E8
:1041E00000000000000000000000000000000000CF
:1041F00000000000000000000000000000000000BF
:1042000000000000000000000000000000000000AE
:10421000000000000000000000000000000000009E
:10422000000000000000000000000000000000008E
:10423000000000000000000000000000000000007E
:10424000000000000000000000000000000000006E
:10425000000000000000000000000000000000005E
:10426000000000000000000000000000000000004E
:10427000000000000000000000000000000000003E
:10428000000000000000000000000000000000002E
:10429000000000000000000000000000000000001E
:1042A000000000000000000000000000000000000E
:1042B00000000000000000000000000000000000FE
:1042C000000000000004047E018047300F1027002A
:1042D00047807F0000000000000000000000000098
:1042E00000000000000000000000000000000000CE
:1042F00000000000000000000000000000000000BE
:1043000000000000000000000000000000000000AD
:10431000000000000000000000000000000000009D
:10432000000000000000000000000000000000008D
:10433000000000000000000000000000000000007D
:10434000000000000000000000000000000000006D
:10435000000000000000000000000000000000005D
:10436000000000000000000000000000000000004D
:10437000000000000000000000000000000000003D
:10438000000000000000000000000000000000002D
:10439000000000000000000000000000000000001D
:1043A000000000000000000000000000000000000D
:1043B00000000000000000000000000000000000FD
:1043C00000000000000022322AA6A2622111098109
:1043D00001000000000000000000000000000000DC
:1043E00000000000000000000000000000000000CD
:1043F00000000000000000000000000000000000BD
:1044000000000000000000000000000000000000AC
:10441000000000000000000000000000000000009C
:10442000000000000000000000000000000000008C
:10443000000000000000000000000000000000007C
:10444000000000000000000000000000000000006C
:10445000000000000000000000000000000000005C
:10446000000000000000000000000000000000004C
:10447000000000000000000000000000000000003C
:10448000000000000000000000000000000000002C
:10449000000000000000000000000000000000001C
:1044A000000000000000000000000000000000000C
:1044B00000000000000000000000000000000000FC
:1044C000000000004222130B42827E02020A1223E5
:1044D0004600000000000000000000000000000096
:1044E00000000000000000000000000000000000CC
:1044F00000000000000000000000000000000000BC
:1045000000000000000000000000000000000000AB
:10451000000000000000000000000000000000009B
:10452000000000000000000000000000000000008B
:10453000000000000000000000000000000000007B
:10454000000000000000000000000000000000006B
:10455000000000000000000000000000000000005B
:10456000000000000000000000000000000000004B
:10457000000000000000000000000000000000003B
:10458000000000000000000000000000000000002B
:10459000000000000000000000000000000000001B
:1045A000000000000000000000000000000000000B
:1045B00000000000000000000000000000000000FB
:1045C00000002030AC63300088C8A8998E88A8C845
:1045D0008800000000000000000000000000000053
:1045E00000000000000000000000000000000000CB
:1045F00000000000000000000000000000000000BB
:1046000000000000000000000000000000000000AA
:10461000000000000000000000000000000000009A
:10462000000000000000000000000000000000008A
:10463000000000000000000000000000000000007A
:10464000000000000000000000000000000000006A
:10465000000000000000000000000000000000005A
:10466000000000000000000000000000000000004A
:10467000000000000000000000000000000000003A
:10468000000000000000000000000000000000002A
:10469000000000000000000000000000000000001A
:1046A000000000000000000000000000000000000A
:1046B00000000000000000000000000000000000FA
:1046C0000022672212128040300F00003F404071EC
:1046D00000000000000000000000000000000000DA
:1046E00000000000000000000000000000000000CA
:1046F00000000000000000000000000000000000BA
:1047000000000000000000000000000000000000A9
:104710000000000000000000000000000000000099
:104720000000000000000000000000000000000089
:104730000000000000000000000000000000000079
:104740000000000000000000000000000000000069
:104750000000000000000000000000000000000059
:104760000000000000000000000000000000000049
:104770000000000000000000000000000000000039
:104780000000000000000000000000000000000029
:104790000000000000000000000000000000000019
:1047A0000000000000000000000000000000000009
:1047B00000000000000000000000000000000000F9
:1047C000100C048414640506F404040404140C009E
:1047D00000000000000000000000000000000000D9
:1047E00000000000000000000000000000000000C9
:1047F00000000000000000000000000000000000B9
:1048000000000000000000000000000000000000A8
:104810000000000000000000000000000000000098
:104820000000000000000000000000000000000088
:104830000000000000000000000000000000000078
:104840000000000000000000000000000000000068
:104850000000000000000000000000000000000058
:104860000000000000000000000000000000000048
:104870000000000000000000000000000000000038
:104880000000000000000000000000000000000028
:104890000000000000000000000000000000000018
:1048A0000000000000000000000000000000000008
:1048B00000000000000000000000000000000004F4
:1048C0008484444724140C070C14244484040000FA
:1048D00000000000000000000000000000000000D8
:1048E00000000000000000000000000000000000C8
:1048F00000000000000000000000000000000000B8
:1049000000000000000000000000000000000000A7
:104910000000000000000000000000000000000097
:104920000000000000000000000000000000000087
:104930000000000000000000000000000000000077
:104940000000000000000000000000000000000067
:104950000000000000000000000000000000000057
:104960000000000000000000000000000000000047
:104970000000000000000000000000000000000037
:104980000000000000000000000000000000000027
:104990000000000000000000000000000000000017
:1049A0000000000000000000000000000000000007
:1049B000000000000000000000000000000000FCFB
:1049C000848484FC001010101010FF1010000000F0
:1049D00000000000000000000000000000000000D7
:1049E00000000000000000000000000000000000C7
:1049F00000000000000000000000000000000000B7
:104A000000000000000000000000000000000000A6
:104A10000000000000000000000000000000000096
:104A20000000000000000000000000000000000086
:104A30000000000000000000000000000000000076
:104A40000000000000000000000000000000000066
:104A50000000000000000000000000000000000056
:104A60000000000000000000000000000000000046
:104A70000000000000000000000000000000000036
:104A80000000000000000000000000000000000026
:104A90000000000000000000000000000000000016
:104AA0000000000000000000000000000000000006
:104AB00000000000000000000000000000003F10A7
:104AC00010103F0000010640807F00000000000041
:104AD00000000000000000000000000000000000D6
:104AE00000000000000000000000000000000000C6
:104AF00000000000000000000000000000000000B6
:104B000000000000000000000000000000000000A5
:104B10000000000000000000000000000000000095
:104B20000000000000000000000000000000000085
:104B30000000000000000000000000000000000075
:104B40000000000000000000000000000000000065
:104B50000000000000000000000000000000000055
:104B60000000000000000000000000000000000045
:104B70000000000000000000000000000000000035
:104B80000000000000000000000000000000000025
:104B90000000000000000000000000000000000015
:104BA0000000000000000000000000000000000005
:104BB0000000000000000000000000001060028CF7
:104BC0000000FE9292929292FE000000000000000F
:104BD00000000000000000000000000000000000D5
:104BE00000000000000000000000000000000000C5
:104BF00000000000000000000000000000000000B5
:104C000000000000000000000000000000000000A4
:104C10000000000000000000000000000000000094
:104C20000000000000000000000000000000000084
:104C30000000000000000000000000000000000074
:104C40000000000000000000000000000000000064
:104C50000000000000000000000000000000000054
:104C60000000000000000000000000000000000044
:104C70000000000000000000000000000000000034
:104C80000000000000000000000000000000000024
:104C90000000000000000000000000000000000014
:104CA0000000000000000000000000000000000004
:104CB000000000000000000000000004047E01402D
:104CC0007E42427E427E42427E4000000000000062
:104CD00000000000000000000000000000000000D4
:104CE00000000000000000000000000000000000C4
:104CF00000000000000000000000000000000000B4
:104D000000000000000000000000000000000000A3
:104D10000000000000000000000000000000000093
:104D20000000000000000000000000000000000083
:104D30000000000000000000000000000000000073
:104D40000000000000000000000000000000000063
:104D50000000000000000000000000000000000053
:104D60000000000000000000000000000000000043
:104D70000000000000000000000000000000000033
:104D80000000000000000000000000000000000023
:104D90000000000000000000000000000000000013
:104DA0000000000000000000000000000000000003
:104DB000000000000000000000000000FC2424248B
:104DC000FC252624FC24242404000000000000000C
:104DD00000000000000000000000000000000000D3
:104DE00000000000000000000000000000000000C3
:104DF00000000000000000000000000000000000B3
:104E000000000000000000000000000000000000A2
:104E10000000000000000000000000000000000092
:104E20000000000000000000000000000000000082
:104E30000000000000000000000000000000000072
:104E40000000000000000000000000000000000062
:104E50000000000000000000000000000000000052
:104E60000000000000000000000000000000000042
:104E70000000000000000000000000000000000032
:104E80000000000000000000000000000000000022
:104E90000000000000000000000000000000000012
:104EA0000000000000000000000000000000000002
:104EB00000000000000000000040308F80844C554E
:104EC000252525554C808080000000000000000052
:104ED00000000000000000000000000000000000D2
:104EE00000000000000000000000000000000000C2
:104EF00000000000000000000000000000000000B2
:104F000000000000000000000000000000000000A1
:104F10000000000000000000000000000000000091
:104F20000000000000000000000000000000000081
:104F30000000000000000000000000000000000071
:104F40000000000000000000000000000000000061
:104F50000000000000000000000000000000000051
:104F60000000000000000000000000000000000041
:104F70000000000000000000000000000000000031
:104F80000000000000000000000000000000000021
:104F90000000000000000000000000000000000011
:104FA0000000000000000000000000000000000001
:104FB0000000000000000000424AD26A46C000F231
:104FC000121AD61212F202000000000000000000C7
:104FD00000000000000000000000000000000000D1
:104FE00000000000000000000000000000000000C1
:104FF00000000000000000000000000000000000B1
:1050000000000000000000000000000000000000A0
:105010000000000000000000000000000000000090
:105020000000000000000000000000000000000080
:105030000000000000000000000000000000000070
:105040000000000000000000000000000000000060
:105050000000000000000000000000000000000050
:105060000000000000000000000000000000000040
:105070000000000000000000000000000000000030
:105080000000000000000000000000000000000020
:105090000000000000000000000000000000000010
:1050A0000000000000000000000000000000000000
:1050B0000000000000000040807F000100804F20C1
:1050C000180710204F8000000000000000000000C2
:1050D00000000000000000000000000000000000D0
:1050E00000000000000000000000000000000000C0
:1050F00000000000000000000000000000000000B0
:10510000000000000000000000000000000000009F
:10511000000000000000000000000000000000008F
:10512000000000000000000000000000000000007F
:10513000000000000000000000000000000000006F
:10514000000000000000000000000000000000005F
:10515000000000000000000000000000000000004F
:10516000000000000000000000000000000000003F
:10517000000000000000000000000000000000002F
:10518000000000000000000000000000000000001F
:10519000000000000000000000000000000000000F
:1051A00000000000000000000000000000000000FF
:1051B000000000000000404042CC0040A09E8282DF
:1051C000829EA020200000000000000000000000DF
:1051D00000000000000000000000000000000000CF
:1051E00000000000000000000000000000000000BF
:1051F00000000000000000000000000000000000AF
:10520000000000000000000000000000000000009E
:10521000000000000000000000000000000000008E
:10522000000000000000000000000000000000007E
:10523000000000000000000000000000000000006E
:10524000000000000000000000000000000000005E
:10525000000000000000000000000000000000004E
:10526000000000000000000000000000000000003E
:10527000000000000000000000000000000000002E
:10528000000000000000000000000000000000001E
:10529000000000000000000000000000000000000E
:1052A00000000000000000000000000000000000FE
:1052B00000000000000000003F908840432C1028B0
:1052C0004641808000000000000000000000000057
:1052D00000000000000000000000000000000000CE
:1052E00000000000000000000000000000000000BE
:1052F00000000000000000000000000000000000AE
:10530000000000000000000000000000000000009D
:10531000000000000000000000000000000000008D
:10532000000000000000000000000000000000007D
:10533000000000000000000000000000000000006D
:10534000000000000000000000000000000000005D
:10535000000000000000000000000000000000004D
:10536000000000000000000000000000000000003D
:10537000000000000000000000000000000000002D
:10538000000000000000000000000000000000001D
:10539000000000000000000000000000000000000D
:1053A00000000000000000000000000000000000FD
:1053B000000000001060028C0000FE929292929217
:1053C000FE000000000000000000000000000000DF
:1053D00000000000000000000000000000000000CD
:1053E00000000000000000000000000000000000BD
:1053F00000000000000000000000000000000000AD
:10540000000000000000000000000000000000009C
:10541000000000000000000000000000000000008C
:10542000000000000000000000000000000000007C
:10543000000000000000000000000000000000006C
:10544000000000000000000000000000000000005C
:10545000000000000000000000000000000000004C
:10546000000000000000000000000000000000003C
:10547000000000000000000000000000000000002C
:10548000000000000000000000000000000000001C
:10549000000000000000000000000000000000000C
:1054A00000000000000000000000000000000000FC
:1054B00000000004047E01407E42427E427E424261
:1054C0007E4000000000000000000000000000001E
:1054D00000000000000000000000000000000000CC
:1054E00000000000000000000000000000000000BC
:1054F00000000000000000000000000000000000AC
:10550000000000000000000000000000000000009B
:10551000000000000000000000000000000000008B
:10552000000000000000000000000000000000007B
:10553000000000000000000000000000000000006B
:10554000000000000000000000000000000000005B
:10555000000000000000000000000000000000004B
:10556000000000000000000000000000000000003B
:10557000000000000000000000000000000000002B
:10558000000000000000000000000000000000001B
:10559000000000000000000000000000000000000B
:1055A00000000000000000000000000000000000FB
:1055B00000000000FC242424FC252624FC242424B0
:1055C00004000000000000000000000000000000D7
:1055D00000000000000000000000000000000000CB
:1055E00000000000000000000000000000000000BB
:1055F00000000000000000000000000000000000AB
:10560000000000000000000000000000000000009A
:10561000000000000000000000000000000000008A
:10562000000000000000000000000000000000007A
:10563000000000000000000000000000000000006A
:10564000000000000000000000000000000000005A
:10565000000000000000000000000000000000004A
:10566000000000000000000000000000000000003A
:10567000000000000000000000000000000000002A
:10568000000000000000000000000000000000001A
:10569000000000000000000000000000000000000A
:1056A00000000000000000000000000000000000FA
:1056B0000040308F80844C55252525554C808080B6
:1056C00000000000000000000000000000000000DA
:1056D00000000000000000000000000000000000CA
:1056E00000000000000000000000000000000000BA
:1056F00000000000000000000000000000000000AA
:105700000000000000000000000000000000000099
:105710000000000000000000000000000000000089
:105720000000000000000000000000000000000079
:105730000000000000000000000000000000000069
:105740000000000000000000000000000000000059
:105750000000000000000000000000000000000049
:105760000000000000000000000000000000000039
:105770000000000000000000000000000000000029
:105780000000000000000000000000000000000019
:105790000000000000000000000000000000000009
:1057A00000000000000000000000000000000000F9
:1057B00000202020A06000FF608040201800000032
:1057C00000000000000000000000000000000000D9
:1057D00000000000000000000000000000000000C9
:1057E00000000000000000000000000000000000B9
:1057F00000000000000000000000000000000000A9
:105800000000000000000000000000000000000098
:105810000000000000000000000000000000000088
:105820000000000000000000000000000000000078
:105830000000000000000000000000000000000068
:105840000000000000000000000000000000000058
:105850000000000000000000000000000000000048
:105860000000000000000000000000000000000038
:105870000000000000000000000000000000000028
:105880000000000000000000000000000000000018
:105890000000000000000000000000000000000008
:1058A00000000000000000000000000000000020D8
:1058B0001008060140807F0001020408101000005B
:1058C00000000000000000000000000000000000D8
:1058D00000000000000000000000000000000000C8
:1058E00000000000000000000000000000000000B8
:1058F00000000000000000000000000000000000A8
:105900000000000000000000000000000000000097
:105910000000000000000000000000000000000087
:105920000000000000000000000000000000000077
:105930000000000000000000000000000000000067
:105940000000000000000000000000000000000057
:105950000000000000000000000000000000000047
:105960000000000000000000000000000000000037
:105970000000000000000000000000000000000027
:105980000000000000000000000000000000000017
:105990000000000000000000000000000000000007
:1059A0000000000000000000000000000000008077
:1059B00060F80710901011161010D01000000000B1
:1059C00000000000000000000000000000000000D7
:1059D00000000000000000000000000000000000C7
:1059E00000000000000000000000000000000000B7
:1059F00000000000000000000000000000000000A7
:105A00000000000000000000000000000000000096
:105A10000000000000000000000000000000000086
:105A20000000000000000000000000000000000076
:105A30000000000000000000000000000000000066
:105A40000000000000000000000000000000000056
:105A50000000000000000000000000000000000046
:105A60000000000000000000000000000000000036
:105A70000000000000000000000000000000000026
:105A80000000000000000000000000000000000016
:105A90000000000000000000000000000000000006
:105AA00000000000000000000000000000010000F5
:105AB000FF4040415E4040704E41404000000000C9
:105AC00000000000000000000000000000000000D6
:105AD00000000000000000000000000000000000C6
